:020000040000FA
:04000000803119280A
:100008007E1480310B1F09280A2817282100121D89
:100018000E280F2817282000121D13281428172827
:100028008131902180317E10090080311B28653094
:100038008400003085000B30893135218031210062
:10004800EC01ED01EE01EF01603084000130850024
:100058001030893135218031A0308400013085008D
:1000680018308931352180317E10200089313B29B3
:1000780020004203031D41284228582840081F3900
:10008800003A031D482849285828E7170330410635
:10009800031D4F28502856280130D6005608230043
:1000A800B40058282300B40120004208031D5D282D
:1000B8005E288F2940081F39023A031D64286528E5
:1000C8008F2944080F39003A03196B286C288F29A7
:1000D80044080F39D60002305602031874287528D0
:1000E8008F2920306E06031D7A287B288F29E71771
:1000F800C41B7F288028962844080F390907A43E86
:10010800860001308700403FDB00413FDC004408A7
:100118000F39673E8600013087000108D60056086F
:10012800DA00AA2844080F390907EC3E860087013F
:10013800403FDB00413FDC0044080F39693E860040
:10014800013087000108D6005608DA005A18AD2891
:10015800AE28B928FB30D600FF30D7005B0856051B
:10016800DB005C085705DC00BF2804305B04DB00BB
:1001780000305C04DC00C41BC228C328CF28440814
:100188000F390907A43E8600013087005B08C03F8D
:100198005C08C13FD92844080F390907EC3E86009E
:1001A80087015B08C03F5C08C13F03304106031D5F
:1001B800DE28DF2805295B0886005C088700811F88
:1001C800E628E728FA28C41BEA28EB28F32844087D
:1001D8000F39673E8600013087008114FA284408E9
:1001E8000F39693E86000130870081145B0886005C
:1001F8005C08870001155B0886005C08870081178A
:100208008F2904305B06DB0000305C06DC005B08ED
:1002180086005C088700811F1229132930297F3046
:10022800D6005B0886005C088700560881055B08D5
:1002380086005C08870001170530D0000030D10027
:100248005C08D3005B08D2000230D4000030D5002F
:100258008A318122803135295B0886005C08870055
:100268000117043020005B06DB0000305C06DC0070
:10027800DA183F29402948295B0886005C0887006E
:10028800811F472948297329C41B4B294C29542904
:1002980044080F39673E86000130870081105B29CA
:1002A80044080F39693E86000130870081103B30D1
:1002B800D6005B0886005C08870056088105053073
:1002C800D0000030D1005C08D3005B08D2000230B7
:1002D800D4000030D5008A31812280317B293B301F
:1002E800D6005B0886005C08870056088105200058
:1002F80044080F39983ED600D7010E30D73D56082E
:10030800D8005708D900FE30D6005808860059088A
:10031800870056088105080020006E03031D9529F3
:100328009629A3293D008E1A9A299B29A329900171
:100338001214121602302000E2006208EE003D009E
:10034800101DA729A829B529121DAB29AC29B52943
:10035800FB302000E20062083D0090058A310D2242
:1003680081313D008E1CB929BA29BD2920001211FE
:10037800AF2A101CC029C129D429121CC429C52997
:10038800D4298431D724813121001215043020006A
:10039800E2006208EE00FE30E20062083D009005CF
:1003A800101ED729D829DF29121EDB29DC29DF29CD
:1003B8008931ED2181313D00101FE329E429112AFB
:1003C800121FE729E829F82973302000D0000030EF
:1003D800D1000030D2000030D3000130D40000300A
:1003E800D5008A3181228131BF302000E2006208C5
:1003F8003D0090058931942181312300310803198A
:10040800062A072A092A0130B1023108031D0D2ADC
:100418000E2A112A8C31FD2481313D00901E152AA7
:10042800162A1D2A921E192A1A2A1D2A8A3154228E
:1004380081313D00901C212A222A382A921C252A23
:10044800262A382AFF302000D0007F30D100003023
:10045800D2000030D3000130D4000030D5008A31FA
:10046800812281313D009301043020006E0203187F
:100478003E2A3F2A412A1211AF2A3D00921D452AE1
:10048800462AAD2A2000E4013D00901D4C2A4D2A41
:10049800AD2A0F082000E2006208EF006F0CE200AE
:1004A800E20C620C0F39E30063082200EC00F7301D
:1004B8002000E20062083D00900520006F19652ABF
:1004C800662A782A22006C08673E86000130870079
:1004D800010801392000E2000130E2060108620645
:1004E800FE3962068100892A22006C08693E86006E
:1004F80001308700010801392000E2000130E206DE
:1005080001086206FE396206810022006C08031D9C
:100518008E2A8F2A932A8B3182238131A22A723024
:100528002000D0000030D1006F30D2000030D3005E
:100538000030D400D5008A31812281310130200079
:10054800E2006208E40704306402031CAC2AAD2A06
:10055800482A2000121108007108FD007008FC00EC
:1005680074087504031DB92ABA2ABB2A792B7C089A
:1005780086007D0887007208810074087C07F600F1
:1005880075087D3DF7007608FF3EF800FF30773D9F
:10059800F900780886007908870072088100003021
:1005A80075020330031974020318DB2ADC2ADD2ADA
:1005B800792B7C08013EF60000307D3DF700760877
:1005C800860077088700720881007C08023EF600E2
:1005D80000307D3DF70076088600770887007208AE
:1005E800810074087C07F60075087D3DF7007608E1
:1005F800FE3EF800FF30773DF9007808860079085C
:1006080087007208810074087C07F60075087D3D34
:10061800F7007608FD3EF800FF30773DF9007808CE
:10062800860079088700720881000030750207305B
:10063800031974020318212B222B232B792B7C08F6
:10064800033EF60000307D3DF70076088600770807
:1006580087007208810074087C07F60075087D3DE4
:10066800F7007608FC3EF800FF30773DF90078087F
:100678008600790887007208810000307502093009
:10068800031974020318492B4A2B4B2B792B7C092D
:10069800F6007D09F700F60A0319F70A0330760514
:1006A800FA0000307705FB007A08FC077B08FD3D5F
:1006B8007A08F4027B08F53BFC30F405FF30F505B9
:1006C800732B7C0886007D08870072088100013042
:1006D800F4020030F53B0130FC070030FD3D7408A2
:1006E8007504031D782B792B652B08002100121146
:1006F8003D009301900198010E302100E2009930ED
:10070800E100E30161088600620887008101013089
:10071800E1070030E23D0130E0006008E3076308CC
:100728000319972B982B862B16303D0091009F308C
:1007380097007B3092002100E4016408E00001305A
:10074800E035FF3E031DA42B6035203E860087015F
:100758000030C03F0030C13FC23FC33F0130E0001E
:100768006008E40708306402031CBB2BBC2BA12BD8
:100778003D000E1796010E120E13F7302100E0000F
:1007880060083D0090052000E7012200E201E30136
:10079800E4013D009019D12BD22BC12B013021004F
:1007A800E00060082300B00001302100E00060088C
:1007B8002300AF00AE01AD01B3012100E4016435AF
:1007C800EC3E860087010030C03FC13F6435A43E3F
:1007D8008600013087000030C03FC13F6408693E91
:1007E80086000130870081016408673E8600013079
:1007F800870081010130E0006008E40702306402EC
:10080800031C072C082CE32B2830EC000030ED00EB
:1008180016303D00980000302000A3004030A200B0
:100828000830A10004302100E00060082000A0008A
:10083800A0172200EF0100302300A3000030A2001F
:100848000030A1000030A000AC012000EE0108003B
:1008580020006D0886008701413FF5007508F20009
:10086800F301730822006402031D3C2C7208630222
:1008780003183F2C402C442C6308F2007208F50042
:100888007508F200F3017208E3027308E43BF4010F
:10089800602C7408483E860087010108F200600851
:1008A80086008701720881000130F2007208E007B3
:1008B8000130F2007208F40775087402031C652CF5
:1008C800662C4D2C6308640403196B2C6C2CA52C26
:1008D80020006A08013EF20000306B3DF300720808
:1008E800860073088700083081004830F200003025
:1008F800F3006A0886006B08870042317208C03F1F
:100908007308C13F6D0886008701011B8C2C8D2C54
:10091800992C6A0886006B088700483081006A08AD
:1009280086006B0887008117D62C6A0886006B083A
:100938008700083081006A0886006B0887008117E5
:10094800D62C20006A08013EF20000306B3DF3000F
:100958007208860073088700083081004030F20072
:100968000030F3006A0886006B088700423172087D
:10097800C03F7308C13F6A0886006B0887000430CF
:1009880081006A0886006B088700811722006508C5
:100998006608E2136B08031DD22CD32CD62C8C319D
:1009A800FD2484310800210012113D0093019001BB
:1009B80098010E30F2009930F100F30171088600B9
:1009C8007208870081010130F1070030F23D0130E3
:1009D800F0007008F30773080319F32CF42CE22CC9
:1009E80016303D0091009F3097007B309200F40153
:1009F8007408F0000130F035FF3E031DFF2C703500
:100A0800203E860087010030C03F0030C13FC23F12
:100A1800C33F0130F0007008F40708307402031C6B
:100A2800162D172DFC2C3D000E1796010E120E13D5
:100A3800F730F000700890052000E7012200E2017D
:100A4800E301E4013D0090192A2D2B2D1C2D0130C6
:100A5800F00070082300B0000130F0007008AF000B
:100A6800AE01AD01B301F4017435EC3E8600870197
:100A78000030C03FC13F7435A43E86000130870076
:100A88000030C03FC13F7408693E860001308700CE
:100A980081017408673E86000130870081010130BA
:100AA800F0007008F40702307402031C5C2D5D2D01
:100AB800382D28302100EC000030ED0016303D00C4
:100AC800980000302000A3004030A2000830A100A8
:100AD8000430F0007008A000A0172200EF010030D9
:100AE8002300A3000030A2000030A1000030A000C5
:100AF800AC012000EE0108003D000E122000E71BAB
:100B0800862D872DD02D2200E21F8B2D8C2D9E2D1A
:100B18000230F50075082000EC0023002D08031DA5
:100B2800962D972D9A2D8B31D82385312300AF012F
:100B3800B001202E20006A08013EF50000306B3D10
:100B4800F600750886007608870008308100403076
:100B5800F5000030F6006A0886006B08870042310D
:100B68007508C03F7608C13F6A0886006B08870091
:100B78000C3081006A0886006B0887008117210005
:100B88006C0886006D088700043081006C088600B8
:100B98006D0887008117202EC01FD32DD42DEE2D70
:100BA8000130F5007508EC0023002E08031DDD2D2B
:100BB800DE2DE12D8B31D82385312300AF01B00123
:100BC80022006B08031DE92DEA2D202E8C31FD240F
:100BD8008531202E0230F5007508EC006A08013EC8
:100BE800F50000306B3DF600750886007608870032
:100BF800083081004030F5000030F6006A088600B1
:100C08006B08870042317508C03F7608C13F6A0803
:100C180086006B088700043081006A0886006B082C
:100C2800870081172300AF01B00122006B08031D64
:100C38001E2E1F2E202EEA2D0800200040081F39E6
:100C4800013A0319282E292E2A2EBF2E44080319EB
:100C58002E2E2F2E302EBF2E06304106031D352E88
:100C6800362E6B2E582E22006F03031D3C2E3D2E70
:100C78006B2E74302000E5009030E6000030E9006B
:100C88000930E800C030F0007008E7006B2E8B30A8
:100C9800E5009030E6000030E9001D30E800C03083
:100CA800F0007008E7006B2E4308F000F1017108AE
:100CB800003A0319602E6B2E7008213A0319372E5B
:100CC800033A03194B2E013A03196B2E6B2E2000A1
:100CD800400E890C0339013A0319732E742EA32E82
:100CE800BF2EB730E5000130E6000030E9000130E2
:100CF800E800C130F0007008E700BF2E8030F00037
:100D08007008E7004308F00070082300B700BF2E02
:100D1800B630E5000130E6000030E9000130E800B7
:100D28008130F0007008E700BF2E8030F0007008B6
:100D3800E7004208F00070082300B600BF2E410803
:100D4800F000F1017108003A0319AB2EBF2E7008AC
:100D5800013A0319BF2E033A0319752E013A0319F4
:100D68008C2E0A3A0319BF2E033A0319822E013A30
:100D78000319992EBF2E08002100E8006008031906
:100D8800C62EC72ED02E6835EC3E86008701403F20
:100D9800E900413FEA00D92E6835A43E86000130BB
:100DA8008700403FE900413FEA0069086A04031DE3
:100DB800DE2EDF2EE22EE001E101472FFF30610534
:100DC800E4007F306205E500690886006A0887004C
:100DD80042316408C03F6508C13F6908013EE4002C
:100DE80000306A3DE50064088600650887006308EE
:100DF80081004030E400690886006A0887006408BA
:100E08008105690886006A088700811569088600D7
:100E18006A088700811760080319132F142F2B2FD6
:100E28006835EC3E86008701403FE400413FE5001D
:100E380004306406E60000306506E7006835EC3EDD
:100E4800860087016608C03F6708C13F432F6835A1
:100E5800A43E860001308700403FE400413FE500A2
:100E680004306406E60000306506E7006835A43EF5
:100E78008600013087006608C03F6708C13F6A08DE
:100E8800E1006908E00008002000E7170E30D800EC
:100E98009930D700D9015708860058088700810182
:100EA8000130D7070030D83D0130D6005608D907A1
:100EB80059080319602F612F4F2F2030F0000030A0
:100EC800F1000030F200F3002030F4000030F500AB
:100ED8008231B02287313D000E172000DA015A080E
:100EE800693E86000130870081015A08673E860006
:100EF8000130870081010130D6005608DA07023038
:100F08005A02031C882F892F732F6E30F00001308E
:100F1800F1000030F200F3000130F4000030F50079
:100F28008231B02287313D000E1328302100EC00B9
:100F38000030ED0020302000D6005608ED006D0886
:100F4800EA00FF39031D0030EB004208D6005608BE
:100F58002200EF006F08031DB22FB32FB92F1030F6
:100F68002000D6005608EE00CE2F01302000D00019
:100F78000030D1006F30D2000130D3000130D400EE
:100F88000030D5008A318122873120302000D600F8
:100F98005608EE000800F8007108F6007008F50021
:100FA8007808F4007408F900F02F750886007608B0
:100FB80087000108F4007408F7000130F5070030D5
:100FC800F63D7708F40079088600870174088100E7
:100FD8000130F4007408F9070130F2020030F33BE5
:100FE800720A031DFB2F730A031DFB2FFC2FD92F39
:020FF8000800EF
:101262001630210097000800640080010131890BCB
:10127200362900348931552189318B170B178C316E
:10128200952489314029803119287C302100990028
:101292009801903027009B002200960121001A1F1E
:1012A200532954294F29080089316521893189310F
:1012B2004621893189313121893183317A2389313A
:1012C2008931CE218931080022008C018E01303013
:1012D20021008C003F308E000F3023008E00103032
:1012E2008C0024008C012100951722009D0108002A
:1012F2002100E4006008E1006108E2006408E10006
:101302006108E3006308860001308700E30A62088F
:1013120084008501E20A0008C03F8908031D922962
:1013220093298329080001302300A0070030A13D42
:101332000030A23D0030A33D3308031DA129A2299C
:10134200AF290130F0007008AC072C08031DAA2950
:10135200AB29AF29FF30F0007008AC000800230071
:10136200A801A9011E30FD007D08F70001308A3175
:101372002F228931F001A030F1000030F20040301C
:10138200FD007D08F30001308F3179278931710822
:101392002300AB007008AA00080020006E08031D9D
:1013A200D329D429EC293D008E01920116309100F7
:1013B2009F3097007B30920021001215E1298E1593
:1013C2003D008E1DE529E629E02901302100E000DB
:1013D20060082000EE0008003D001215EF302000EA
:1013E200D60056083D0090058E1401302000D6002C
:1013F20056082300B300AC0175302000D000003045
:10140200D1000030D2000030D3000030D400D5002B
:101412008A318122893108002300B301743020000F
:10142200D0000030D1000030D2000030D3000030B4
:10143200D400D5008A3181228A313D008E101211EA
:10144200282AFB302000D60056083D0090051019CE
:101452002B2A2C2A222A2300AC010800FC00771D2B
:10146200332A342A392AF0017C088A31ED228A3162
:10147200F71C3C2A3D2A432AF001F00A7C088A31F3
:10148200ED228A317C08983EF800F9010E30F93DD0
:101492007808FA007908FB007A0886007B08870042
:1014A2007708810008003D00181C582A592A7C2A16
:1014B20020006D088600870180300106031D622A24
:1014C200632A7A2A21006C0886006D08870084301E
:1014D2000106031D6D2A6E2A7A2A0C30F0002000C4
:1014E2006D0886008701700881006D0886008701FB
:1014F20081173D001810DF30F000700890050800D9
:101502008A2A8931B0218A31B22A863121268A314A
:10151200B22A20005108003A0319932A7F3A03198C
:10152200AD2AB22A5008013A0319822A033A031952
:10153200B22A013A0319862A063A0319B22A773ADD
:101542000319B22A013A0319B22A073A0319B22A35
:10155200013A0319B22AB22A5008FF3A0319B22AF1
:10156200B22A0800023020006C06031DB92ABA2AEA
:10157200BE2A84312C248A31EC2AEC012300320861
:10158200031DC42AC52AEB2A20006A08013EF60080
:1015920000306B3DF7007608860077088700083038
:1015A20081004030F6000030F7006A0886006B08C0
:1015B200870042317608C03F7708C13F6A0886003B
:1015C2006B0887000C3081006A0886006B08870070
:1015D2008117EC2AB2010800F5002030F1007108F1
:1015E200F6007008F1000130F135890BF52A750813
:1015F200F2000130F235FF3E031DFB2A72357107FE
:10160200F3000130F335FF3E031D032B7335F40065
:101612007408F60776088600870181137008031D97
:10162200132B142B1E2B7535A43E86000130870028
:101632007608C03F0030C13F262B7535EC3E860050
:1016420087017608C03F0030C13F760886008701D7
:1016520001137608043E8600870101170800220064
:10166200ED01EB012300AE01AD01B2012000EC015E
:101672007F30DF0021006C0886006D0887002000A3
:101682005F088105043021006C06EC0000306D0615
:10169200ED007F302000DF0021006C0886006D081D
:1016A200870020005F088105043021006C06EC00F1
:1016B20000306D06ED007F302000DF006A088600F2
:1016C2006B0887005F088105E701E801E901220054
:1016D200E201E301E4018D3177258B3103302000F3
:1016E200D0000030D1000030D2000030D3000030F2
:1016F200D400D5008A3181228B31853180258B310E
:1017020008002D302000E00060082300B100200016
:101712006F08FD39031D8E2B8F2BCB2B6F363F3974
:10172200E0000130E035FF3E031D932B6035203E83
:10173200E1006108ED006D08EA00FF39031D003089
:10174200EB0004306A06EA0000306B06EB006D081D
:1017520086008701010C890C0F390D3A031DB22B4B
:10176200B32BC72B6D08023E86008701403FF00075
:10177200413FF1000830F2000030F3004030873181
:10178200CF278B318B3130238B31D72B8A31B32248
:101792008B31D72BFD306F05E00004306006031D4E
:1017A200D32BD42BD72B8D31F4258B31080023007A
:1017B200AE01AD01023020006C06031DE12BE22BCD
:1017C200072C6A08013EF30000306B3DF4007308F9
:1017D200860074088700083081004830F30000302A
:1017E200F4006A0886006B08870042317308C03F24
:1017F2007408C13F6A0886006B0887004830810080
:101802006A0886006B0887008117312C6908470235
:10181200031D0D2C680846020318102C112C152CE0
:101822004708E9004608E8008E31F5268B3148303A
:10183200F3000030F40021006C0886006D08870078
:1018420042317308C03F7408C13F6C0886006D08BE
:101852008700483081006C0886006D088700811778
:1018620008002000C801C901722CE71723003403C5
:10187200031D3C2C3D2C862C2000C814862CE71717
:10188200862CE717C41B462C472C532C44080F39CF
:101892000907A43E860001308700403FF200413F25
:1018A200F3005D2C44080F390907EC3E86008701DE
:1018B200403FF200413FF300720886007308870040
:1018C200811F642C652C862C7208860073088700A1
:1018D200011D6C2C6D2C862C0130F0007008C800A4
:1018E200862C40081F39F000F1017108003A0319F3
:1018F2007B2C862C7008003A0319362C013A031906
:10190200402C033A0319422C862C2000E71F8A2C14
:101912008B2C942C4830E5000030E600671402302E
:10192200F0007008E8000800203020006E02031862
:101932009B2C9C2C9D2CFC2C3D008E1CA12CA22CA3
:10194200A32CFC2C23002A082B040319A92CAA2C53
:10195200B22C2A0886002B088700811BB12CB22CDE
:10196200FC2C280829040319B72CB82CC02C2808F1
:10197200860029088700811BBF2CC02CE62CA030D2
:101982002100EB006B08E0002030893179218C3195
:1019920001302100EB006B082200A0072100E001CA
:1019A200E00A2030E1000130E2004030EB006B0839
:1019B200E30001308631C0268C312100610823000A
:1019C200A900210060082300A8002100E001A03046
:1019D200E1000030E2004030EB006B08E300013030
:1019E2008631C0268C31210061082300AB00210022
:1019F20060082300AA00080023003008031D022DFE
:101A0200032D762D0130F0007008B0002F08031D61
:101A12000B2D0C2D762D0130F0007008AF00023036
:101A220020006C06031D162D172D2A2D21006C088F
:101A320086006D088700413181016C0886006D08BF
:101A42008700483081006C0886006D088700811786
:101A5200762D6C03031D2E2D2F2D762D2300B20122
:101A62000830F00020006D0A8600870170088100AE
:101A72004030F0000030F1006D08023E8600870120
:101A82007008C03F7108C13F0430F0006D08860045
:101A92008701700881006D08860087018117013077
:101AA200F00070082300B20020006A08013EF00036
:101AB20000306B3DF1007008860071088700083025
:101AC20081004030F0000030F1006A0886006B08A7
:101AD200870042317008C03F7108C13F6A08860022
:101AE2006B08870080308100762D08002000400EB0
:101AF200890C0339003A03197F2D802DC82DF32D4F
:101B0200E7170830DD005D08EE00F32D8E317226F6
:101B12008D31F32D873148278D31F32D6F30E5005C
:101B22000130E60067140130DD005D08E800E717C8
:101B3200F32D8C3132248D31F32D80313C208D31C7
:101B4200F32D44086E3EE5000130E60067140130D3
:101B5200DD005D08E800E717F32DE7174208DD0016
:101B620044086E3E8600013087005D088100F32D37
:101B72000230D0000030D1000030D2000030D3005B
:101B82000030D400D5008A3181228D31F32D4108F5
:101B9200DD00DE015E08003A0319D02DF32D5D0849
:101BA200003A03199A2D013A03199E2D023A03199C
:101BB2009E2D063A0319812D033A0319872D013A06
:101BC2000319B92D0F3A03198F2D013A03198B2DE1
:101BD200033A0319A22D013A0319AE2D073A03194C
:101BE200F32DF32D080021006C0886006D08870094
:101BF2000030011B0130F50004306C06EC000030AF
:101C02006D06ED00083020006E06031D092E0A2E17
:101C12001E2E42087F393D00960016080319122E27
:101C2200132E192E1030F30073082000EE001E2E22
:101C32000430F30073082000EE006C03031D222E13
:101C4200232E672E4830F3000030F40021006C0888
:101C520086006D08870042317308C03F7408C13F97
:101C62008E31F5268D31023022006D06031D3A2E8B
:101C72003B2E482E21006C0886006D088700043038
:101C820081006C0886006D0887008117712E750827
:101C9200031D4C2E4D2E5A2E21006C0886006D0815
:101CA2008700483081006C0886006D088700811724
:101CB200712E21006C0886006D08870008308100B3
:101CC2006C0886006D0887008117712E2200E21FC2
:101CD2006B2E6C2E6F2E65086608E2132000EC0155
:101CE2000800803020004006031D782E792EF42E45
:101CF200C030F0007008E700E12EA830E500903017
:101D0200E6000030E9001230E800F42E4208031D1C
:101D12008B2E8C2EBA2E4208F000F101F035F10D17
:101D2200C430700784009030713D8500003FE500AB
:101D3200013FE6006608F1006508F0000230700716
:101D4200840071080318710A85000008F200720805
:101D5200E8006608F1006508F000033070078400AF
:101D620071080318710A85000008F2007208E90080
:101D7200F42EE701F42E033042020318C12EC22EC4
:101D8200DD2E4208F000F101F035F10DBA30700796
:101D920084009030713D8500003FE500013FE60080
:101DA20065088400660885000008F000F1017008EB
:101DB200E8007108E900F42EE701F42EE701F42EA1
:101DC2004308F000F1017108003A0319E92EDF2EF1
:101DD2007008013A03197E2E033A0319872E013A3D
:101DE2000319BC2EDF2E08000830F0007008F20044
:101DF2000030200069020830031968020318022F1C
:101E0200032F1B2F6808F0007008F20022006D08F3
:101E1200031D0C2F0D2F122F0130F0007008ED0062
:101E22001B2F6D03031D162F172F1B2F0230F000DF
:101E32007008ED007208F000F10170082000E8025D
:101E42007108E93B21006C08013EF00000306D3D55
:101E5200F10070088600710887007208810048301E
:101E6200F00070082300B50020006718392F3A2FC0
:101E7200732F542F2000650884006608850000082F
:101E8200F0002300350886008701700881000130C8
:101E92002000E5070030E63D0130F0007008230025
:101EA200B5070130F2027208031D582F592F3B2F3C
:101EB200782F200065088400660885000008F0007D
:101EC2002300350886008701700881000130200058
:101ED200E5070030E63D0130F00070082300B50749
:101EE2000130F2027208031D772F782F5A2F080053
:101EF200F800700803197E2F7F2F882F7835EC3E6B
:101F020086008701403FF900413FFA00912F783562
:101F1200A43E860001308700403FF900413FFA00AD
:101F220079087A04031D962F972F9A2FF001F10159
:101F3200FF2FFF307105F4007F307205F50079083C
:101F420086007A08870042317408C03F7508C13F95
:101F52007908013EF40000307A3DF50074088600ED
:101F620075088700730881004030F4007908860004
:101F72007A08870074088105790886007A08870044
:101F82008115790886007A0887008117700803197D
:101F9200CB2FCC2FE32F7835EC3E86008701403FD4
:101FA200F400413FF50004307406F6000030750677
:101FB200F7007835EC3E860087017608C03F770847
:101FC200C13FFB2F7835A43E860001308700403F99
:101FD200F400413FF50004307406F6000030750647
:101FE200F7007835A43E8600013087007608C03FAE
:101FF2007708C13F7A08F1007908F000080034340C
:1020020003344D34003469340034633400347234A0
:1020120000346F340034633400346834003469347B
:1020220000347034003420340034543400346534C5
:10203200003463340034683400346E3400346F3456
:1020420000346C3400346F34003467340034793433
:10205200003420340034493400346E3400346334A4
:1020620000342E3400342E340334533400346934B3
:1020720000346D340034703400346C340034653410
:1020820000342034003448340034493400344434B9
:10209200003420340034443400346534003476345F
:1020A200003469340034633400346534003420343D
:1020B200003444340034653400346D3400346F34F9
:1020C2000034093402342934003401340134003438
:1020D200C03432340934043400340034023403345A
:1020E2000034003400340934213411340134003412
:1020F200013422341D34003407340534813403346E
:10210200403400340134073405340134033440349C
:102112000034013406340034FF3409340134A1346C
:10212200013419340134293440341534003426344E
:10213200FF3400347534083495344034813400342B
:10214200193401342934403491340034C034123407
:102152000134003402340034003400340834D834FA
:1021620004343F3400340034013401340234003486
:102172000134C03490340034903434349034043414
:0A218200033409340434623490344D
:020000040001F9
:04000E00E40FCF1F0D
:00000001FF
